{
  "contractName": "Voting",
  "abi": [
    {
      "inputs": [
        {
          "internalType": "bytes32[]",
          "name": "candidateNames",
          "type": "bytes32[]"
        }
      ],
      "payable": false,
      "stateMutability": "nonpayable",
      "type": "constructor"
    },
    {
      "constant": true,
      "inputs": [],
      "name": "admin",
      "outputs": [
        {
          "internalType": "address",
          "name": "",
          "type": "address"
        }
      ],
      "payable": false,
      "stateMutability": "view",
      "type": "function"
    },
    {
      "constant": true,
      "inputs": [
        {
          "internalType": "uint256",
          "name": "",
          "type": "uint256"
        }
      ],
      "name": "candidates",
      "outputs": [
        {
          "internalType": "bytes32",
          "name": "",
          "type": "bytes32"
        }
      ],
      "payable": false,
      "stateMutability": "view",
      "type": "function"
    },
    {
      "constant": true,
      "inputs": [
        {
          "internalType": "address",
          "name": "",
          "type": "address"
        }
      ],
      "name": "hasVoted",
      "outputs": [
        {
          "internalType": "bool",
          "name": "",
          "type": "bool"
        }
      ],
      "payable": false,
      "stateMutability": "view",
      "type": "function"
    },
    {
      "constant": true,
      "inputs": [
        {
          "internalType": "bytes32",
          "name": "",
          "type": "bytes32"
        }
      ],
      "name": "votesReceived",
      "outputs": [
        {
          "internalType": "uint256",
          "name": "",
          "type": "uint256"
        }
      ],
      "payable": false,
      "stateMutability": "view",
      "type": "function"
    },
    {
      "constant": false,
      "inputs": [
        {
          "internalType": "bytes32",
          "name": "candidate",
          "type": "bytes32"
        }
      ],
      "name": "voteForCandidate",
      "outputs": [],
      "payable": false,
      "stateMutability": "nonpayable",
      "type": "function"
    },
    {
      "constant": true,
      "inputs": [
        {
          "internalType": "bytes32",
          "name": "candidate",
          "type": "bytes32"
        }
      ],
      "name": "validCandidate",
      "outputs": [
        {
          "internalType": "bool",
          "name": "",
          "type": "bool"
        }
      ],
      "payable": false,
      "stateMutability": "view",
      "type": "function"
    }
  ],
  "bytecode": "0x608060405234801561001057600080fd5b5060405161066d38038061066d8339818101604052602081101561003357600080fd5b810190808051604051939291908464010000000082111561005357600080fd5b8382019150602082018581111561006957600080fd5b825186602082028301116401000000008211171561008657600080fd5b8083526020830192505050908051906020019060200280838360005b838110156100bd5780820151818401526020810190506100a2565b5050505090500160405250505033600360006101000a81548173ffffffffffffffffffffffffffffffffffffffff021916908373ffffffffffffffffffffffffffffffffffffffff1602179055508060029080519060200190610121929190610128565b505061019a565b828054828255906000526020600020908101928215610164579160200282015b82811115610163578251825591602001919060010190610148565b5b5090506101719190610175565b5090565b61019791905b8082111561019357600081600090555060010161017b565b5090565b90565b6104c4806101a96000396000f3fe608060405234801561001057600080fd5b50600436106100625760003560e01c806309eef43e146100675780633477ee2e146100c3578063392e6678146101055780637021939f1461014b578063cc9ab2671461018d578063f851a440146101bb575b600080fd5b6100a96004803603602081101561007d57600080fd5b81019080803573ffffffffffffffffffffffffffffffffffffffff169060200190929190505050610205565b604051808215151515815260200191505060405180910390f35b6100ef600480360360208110156100d957600080fd5b8101908080359060200190929190505050610225565b6040518082815260200191505060405180910390f35b6101316004803603602081101561011b57600080fd5b8101908080359060200190929190505050610246565b604051808215151515815260200191505060405180910390f35b6101776004803603602081101561016157600080fd5b810190808035906020019092919050505061029c565b6040518082815260200191505060405180910390f35b6101b9600480360360208110156101a357600080fd5b81019080803590602001909291905050506102b4565b005b6101c3610469565b604051808273ffffffffffffffffffffffffffffffffffffffff1673ffffffffffffffffffffffffffffffffffffffff16815260200191505060405180910390f35b60006020528060005260406000206000915054906101000a900460ff1681565b6002818154811061023257fe5b906000526020600020016000915090505481565b600080600090505b60028054905081101561029157826002828154811061026957fe5b90600052602060002001541415610284576001915050610297565b808060010191505061024e565b50600090505b919050565b60016020528060005260406000206000915090505481565b6000803373ffffffffffffffffffffffffffffffffffffffff1673ffffffffffffffffffffffffffffffffffffffff16815260200190815260200160002060009054906101000a900460ff1615610373576040517f08c379a00000000000000000000000000000000000000000000000000000000081526004018080602001828103825260178152602001807f596f75206861766520616c726561647920766f7465642e00000000000000000081525060200191505060405180910390fd5b61037c81610246565b6103ee576040517f08c379a00000000000000000000000000000000000000000000000000000000081526004018080602001828103825260198152602001807f43616e64696461746520646f6573206e6f742065786973742e0000000000000081525060200191505060405180910390fd5b60016000803373ffffffffffffffffffffffffffffffffffffffff1673ffffffffffffffffffffffffffffffffffffffff16815260200190815260200160002060006101000a81548160ff02191690831515021790555060018060008381526020019081526020016000206000828254019250508190555050565b600360009054906101000a900473ffffffffffffffffffffffffffffffffffffffff168156fea265627a7a72315820e086b72894a07e8c9d15bb080da2d84c9fbef321f39b12d61e3ccfd4f50d4d4364736f6c63430005100032",
  "source": "pragma solidity ^0.5.16;\r\n\r\ncontract Voting {\r\n    // Track whether an address has voted\r\n    mapping(address => bool) public hasVoted;\r\n    \r\n    // Track how many votes each candidate has received\r\n    mapping(bytes32 => uint) public votesReceived;\r\n    \r\n    // Array of candidates\r\n    bytes32[] public candidates;\r\n    \r\n    // Admin address\r\n    address public admin;\r\n\r\n    // Restrict functions to admin only\r\n    modifier onlyAdmin() {\r\n        require(msg.sender == admin, \"Only the admin can add candidates\");\r\n        _;\r\n    }\r\n\r\n    // Constructor to initialize the contract with candidate names\r\n    constructor(bytes32[] memory candidateNames) public {\r\n        admin = msg.sender; // Set the deployer as the admin\r\n        candidates = candidateNames; // Set the initial list of candidates\r\n    }\r\n\r\n    // Function to vote for a candidate\r\n    function voteForCandidate(bytes32 candidate) public {\r\n        require(!hasVoted[msg.sender], \"You have already voted.\");\r\n        require(validCandidate(candidate), \"Candidate does not exist.\");\r\n\r\n        hasVoted[msg.sender] = true;\r\n        votesReceived[candidate] += 1;\r\n    }\r\n\r\n    // Check if the given candidate is valid\r\n    function validCandidate(bytes32 candidate) view public returns (bool) {\r\n        for (uint i = 0; i < candidates.length; i++) {\r\n            if (candidates[i] == candidate) {\r\n                return true;\r\n            }\r\n        }\r\n        return false;\r\n    }\r\n}\r\n",
  "sourcePath": "C:\\Users\\willt\\Desktop\\VotingDApp\\contracts\\Voting.sol",
  "compiler": {
    "name": "solc",
    "version": "0.5.16+commit.9c3226ce.Emscripten.clang"
  },
  "schemaVersion": "3.4.16",
  "updatedAt": "2025-05-07T10:06:22.064Z",
  "networkType": "ethereum",
  "devdoc": {
    "methods": {}
  },
  "userdoc": {
    "methods": {}
  }
}